:100000000C945C000C9479000C9479000C947900A9
:100010000C9479000C9479000C9479000C9479007C
:100020000C9479000C9479000C9479000C9479006C
:100030000C9479000C9479000C9479000C9479005C
:100040000C941E010C9479000C9479000C947900A6
:100050000C9479000C9479000C9479000C9479003C
:100060000C9479000C947900000000002400270013
:100070002A0000000000250028002B0004040404CE
:100080000404040402020202020203030303030342
:10009000010204081020408001020408102001021F
:1000A00004081020000000080002010000030407FB
:1000B000000000000000000011241FBECFEFD8E0B8
:1000C000DEBFCDBF11E0A0E0B1E0EAE9F5E002C09B
:1000D00005900D92A031B107D9F721E0A0E1B1E080
:1000E00001C01D92A931B207E1F70E9468010C948A
:1000F000CB020C94000090E0FC01EC55FF4F2491E2
:10010000FC01E057FF4F3491FC01E458FF4FE491AC
:10011000EE23C9F0222339F0233001F1A8F4213075
:1001200019F1223029F1F0E0EE0FFF1FEE58FF4FDA
:10013000A591B4918FB7F894EC91611126C03095D8
:100140003E233C938FBF08952730A9F02830C9F093
:10015000243049F7809180008F7D03C0809180001A
:100160008F7780938000DFCF84B58F7784BDDBCF1E
:1001700084B58F7DFBCF8091B0008F778093B000E6
:10018000D2CF8091B0008F7DF9CF3E2BDACF3FB731
:10019000F8948091150190911601A0911701B091EA
:1001A000180126B5A89B05C02F3F19F00196A11D87
:1001B000B11D3FBFBA2FA92F982F8827BC01CD01B1
:1001C000620F711D811D911D42E0660F771F881F10
:1001D000991F4A95D1F708958F929F92AF92BF923F
:1001E000CF92DF92EF92FF924B015C010E94C70019
:1001F0006B017C010E94C7006C197D098E099F0963
:10020000683E734081059105A8F321E0821A9108A8
:10021000A108B10888EEC80E83E0D81EE11CF11CCD
:1002200081149104A104B10429F7FF90EF90DF90AD
:10023000CF90BF90AF909F908F9008951F920F9294
:100240000FB60F9211242F933F938F939F93AF93E9
:10025000BF938091110190911201A0911301B0916F
:1002600014013091100123E0230F2D3758F501962A
:10027000A11DB11D209310018093110190931201D3
:10028000A0931301B0931401809115019091160170
:10029000A0911701B09118010196A11DB11D809385
:1002A000150190931601A0931701B0931801BF9107
:1002B000AF919F918F913F912F910F900FBE0F9013
:1002C0001F90189526E8230F0296A11DB11DD2CFCD
:1002D000789484B5826084BD84B5816084BD85B521
:1002E000826085BD85B5816085BD80916E0081602D
:1002F00080936E00109281008091810082608093D3
:1003000081008091810081608093810080918000D4
:100310008160809380008091B10084608093B100FF
:100320008091B00081608093B00080917A008460F9
:1003300080937A0080917A00826080937A00809125
:100340007A00816080937A0080917A00806880933F
:100350007A001092C100A0E0B1E08D919D919927A3
:10036000FC01E057FF4F249184589F4FFC0184917A
:10037000882399F090E0880F991FFC01E859FF4FFE
:10038000C591D491FC01EE58FF4F859194918FB7A0
:10039000F894E881E22BE8838FBFF1E0A031BF073A
:1003A000E1F6F12CE12C30E0432E31E0532ED12C3C
:1003B000C12CB12CA12C120146EF642E40E0742E0A
:1003C000C0E0D1E08881229661E00E947B0081E05C
:1003D000C031D807B9F768EC70E080E090E00E9487
:1003E000EC00C0E0D1E08881229660E00E947B00B2
:1003F00091E0C031D907B9F76CE271E080E090E09C
:100400000E94EC00E201E8E0EE16F104E4F400E002
:1004100011E0F80180810E5F1F4F60E00E947B00B9
:10042000F1E000311F07A9F78881229661E00E9460
:100430007B006CE271E080E090E00E94EC008FEFC6
:10044000E81AF80AE0CFCCE0D1E08E0120E0822E5D
:1004500021E0922EF4018081F2E08F0E911C60E089
:100460000E947B0080E1881681E0980699F761E0A0
:10047000F80180810E947B006CE271E080E090E0F6
:100480000E94EC0002501109F1E000301F07F1F664
:1004900090E0892E91E0992E00E011E061E0F401F6
:1004A00080810E947B0061E0F80180890E947B00CE
:1004B0006CE271E080E090E00E94EC0002501109D3
:1004C0006016710659F7F2E08F0E911C8AE08816CB
:1004D00081E0980609F700E011E098E0C916D10420
:1004E00014F580E0882E81E0982EF4018081F2E0FE
:1004F0008F0E911C60E00E947B0080E1881681E0F5
:10050000980699F7F80180810E5F1F4F61E00E9405
:100510007B006CE271E080E090E00E94EC00FFEF75
:10052000CF1ADF0ADACF00E011E0F80180810E5F18
:100530001F4F60E00E947B00F1E000311F07A9F728
:1005400061E088810E947B006CE271E080E090E0D5
:100550000E94EC00229781E0C030D80721F7E1012A
:1005600098E0A916B1047CF48881229661E00E948B
:100570007B006CE271E080E090E00E94EC00EFEF25
:10058000AE1ABE0AEDCF80E090E0892B09F418CFB7
:0A0590000E94000015CFF894FFCF81
:10059A00050006000700080009000A000B000C000D
:00000001FF
